{
  "contractName": "validation",
  "abi": [
    {
      "inputs": [],
      "stateMutability": "nonpayable",
      "type": "constructor"
    },
    {
      "inputs": [
        {
          "internalType": "bytes32",
          "name": "",
          "type": "bytes32"
        },
        {
          "internalType": "uint256",
          "name": "",
          "type": "uint256"
        }
      ],
      "name": "DocToReviewers",
      "outputs": [
        {
          "internalType": "address",
          "name": "",
          "type": "address"
        }
      ],
      "stateMutability": "view",
      "type": "function",
      "constant": true
    },
    {
      "inputs": [
        {
          "internalType": "bytes32",
          "name": "",
          "type": "bytes32"
        },
        {
          "internalType": "uint256",
          "name": "",
          "type": "uint256"
        }
      ],
      "name": "DocToValidate",
      "outputs": [
        {
          "internalType": "address",
          "name": "",
          "type": "address"
        }
      ],
      "stateMutability": "view",
      "type": "function",
      "constant": true
    },
    {
      "inputs": [
        {
          "internalType": "bytes32",
          "name": "",
          "type": "bytes32"
        }
      ],
      "name": "HashToDoc",
      "outputs": [
        {
          "internalType": "bytes32",
          "name": "hash",
          "type": "bytes32"
        },
        {
          "internalType": "string",
          "name": "date",
          "type": "string"
        },
        {
          "internalType": "uint256",
          "name": "timestamp",
          "type": "uint256"
        },
        {
          "internalType": "string",
          "name": "subject",
          "type": "string"
        }
      ],
      "stateMutability": "view",
      "type": "function",
      "constant": true
    },
    {
      "inputs": [],
      "name": "name",
      "outputs": [
        {
          "internalType": "string",
          "name": "",
          "type": "string"
        }
      ],
      "stateMutability": "view",
      "type": "function",
      "constant": true
    },
    {
      "inputs": [],
      "name": "owner",
      "outputs": [
        {
          "internalType": "address",
          "name": "",
          "type": "address"
        }
      ],
      "stateMutability": "view",
      "type": "function",
      "constant": true
    },
    {
      "inputs": [
        {
          "internalType": "bytes32",
          "name": "hash_",
          "type": "bytes32"
        }
      ],
      "name": "isReviewer",
      "outputs": [
        {
          "internalType": "bool",
          "name": "",
          "type": "bool"
        }
      ],
      "stateMutability": "view",
      "type": "function",
      "constant": true
    },
    {
      "inputs": [
        {
          "internalType": "bytes32",
          "name": "hash_",
          "type": "bytes32"
        }
      ],
      "name": "NotInValidate",
      "outputs": [
        {
          "internalType": "bool",
          "name": "",
          "type": "bool"
        }
      ],
      "stateMutability": "view",
      "type": "function",
      "constant": true
    },
    {
      "inputs": [
        {
          "internalType": "string",
          "name": "inputHash",
          "type": "string"
        },
        {
          "internalType": "string",
          "name": "the_date",
          "type": "string"
        },
        {
          "internalType": "string",
          "name": "a_subject",
          "type": "string"
        },
        {
          "internalType": "address[]",
          "name": "Reviewers",
          "type": "address[]"
        }
      ],
      "name": "BuildDocument",
      "outputs": [],
      "stateMutability": "nonpayable",
      "type": "function"
    },
    {
      "inputs": [
        {
          "internalType": "string",
          "name": "inputHash",
          "type": "string"
        }
      ],
      "name": "Validation",
      "outputs": [],
      "stateMutability": "nonpayable",
      "type": "function"
    },
    {
      "inputs": [
        {
          "internalType": "string",
          "name": "inputHash",
          "type": "string"
        }
      ],
      "name": "isValidated",
      "outputs": [
        {
          "internalType": "bool",
          "name": "",
          "type": "bool"
        }
      ],
      "stateMutability": "view",
      "type": "function",
      "constant": true
    },
    {
      "inputs": [
        {
          "internalType": "string",
          "name": "inputHash",
          "type": "string"
        }
      ],
      "name": "getDocToReviewers",
      "outputs": [
        {
          "internalType": "address[]",
          "name": "",
          "type": "address[]"
        }
      ],
      "stateMutability": "view",
      "type": "function",
      "constant": true
    },
    {
      "inputs": [
        {
          "internalType": "string",
          "name": "inputHash",
          "type": "string"
        }
      ],
      "name": "getDocToValidate",
      "outputs": [
        {
          "internalType": "address[]",
          "name": "",
          "type": "address[]"
        }
      ],
      "stateMutability": "view",
      "type": "function",
      "constant": true
    },
    {
      "inputs": [
        {
          "internalType": "string",
          "name": "inputHash",
          "type": "string"
        }
      ],
      "name": "getHashToDoc",
      "outputs": [
        {
          "components": [
            {
              "internalType": "bytes32",
              "name": "hash",
              "type": "bytes32"
            },
            {
              "internalType": "string",
              "name": "date",
              "type": "string"
            },
            {
              "internalType": "uint256",
              "name": "timestamp",
              "type": "uint256"
            },
            {
              "internalType": "string",
              "name": "subject",
              "type": "string"
            },
            {
              "internalType": "address[]",
              "name": "Validate",
              "type": "address[]"
            }
          ],
          "internalType": "struct validation.document",
          "name": "",
          "type": "tuple"
        }
      ],
      "stateMutability": "view",
      "type": "function",
      "constant": true
    }
  ],
  "bytecode": "0x60806040526040518060400160405280600a81526020017f56616c69646174696f6e00000000000000000000000000000000000000000000815250600190816200004a919062000319565b503480156200005857600080fd5b50336000806101000a81548173ffffffffffffffffffffffffffffffffffffffff021916908373ffffffffffffffffffffffffffffffffffffffff16021790555062000400565b600081519050919050565b7f4e487b7100000000000000000000000000000000000000000000000000000000600052604160045260246000fd5b7f4e487b7100000000000000000000000000000000000000000000000000000000600052602260045260246000fd5b600060028204905060018216806200012157607f821691505b602082108103620001375762000136620000d9565b5b50919050565b60008190508160005260206000209050919050565b60006020601f8301049050919050565b600082821b905092915050565b600060088302620001a17fffffffffffffffffffffffffffffffffffffffffffffffffffffffffffffffff8262000162565b620001ad868362000162565b95508019841693508086168417925050509392505050565b6000819050919050565b6000819050919050565b6000620001fa620001f4620001ee84620001c5565b620001cf565b620001c5565b9050919050565b6000819050919050565b6200021683620001d9565b6200022e620002258262000201565b8484546200016f565b825550505050565b600090565b6200024562000236565b620002528184846200020b565b505050565b5b818110156200027a576200026e6000826200023b565b60018101905062000258565b5050565b601f821115620002c95762000293816200013d565b6200029e8462000152565b81016020851015620002ae578190505b620002c6620002bd8562000152565b83018262000257565b50505b505050565b600082821c905092915050565b6000620002ee60001984600802620002ce565b1980831691505092915050565b6000620003098383620002db565b9150826002028217905092915050565b62000324826200009f565b67ffffffffffffffff81111562000340576200033f620000aa565b5b6200034c825462000108565b620003598282856200027e565b600060209050601f8311600181146200039157600084156200037c578287015190505b620003888582620002fb565b865550620003f8565b601f198416620003a1866200013d565b60005b82811015620003cb57848901518255600182019150602085019450602081019050620003a4565b86831015620003eb5784890151620003e7601f891682620002db565b8355505b6001600288020188555050505b505050505050565b611bd880620004106000396000f3fe608060405234801561001057600080fd5b50600436106100cf5760003560e01c8063c5829b711161008c578063ec076f7f11610066578063ec076f7f1461024f578063f476c77c1461027f578063f94ef8ee146102af578063f9cd78df146102cb576100cf565b8063c5829b71146101d3578063d67a3b3a14610203578063dc3aac5914610233576100cf565b806306fdde03146100d4578063406f9833146100f257806355906c84146101225780637a527fd21461015257806386d4174b146101855780638da5cb5b146101b5575b600080fd5b6100dc6102fb565b6040516100e99190610ed1565b60405180910390f35b61010c6004803603810190610107919061103c565b610389565b6040516101199190611175565b60405180910390f35b61013c600480360381019061013791906111cd565b610439565b6040516101499190611215565b60405180910390f35b61016c600480360381019061016791906111cd565b610507565b60405161017c9493929190611258565b60405180910390f35b61019f600480360381019061019a919061103c565b610647565b6040516101ac9190611175565b60405180910390f35b6101bd6106f7565b6040516101ca91906112ba565b60405180910390f35b6101ed60048036038101906101e891906111cd565b61071b565b6040516101fa9190611215565b60405180910390f35b61021d6004803603810190610218919061103c565b6107e9565b60405161022a9190611430565b60405180910390f35b61024d60048036038101906102489190611546565b6109eb565b005b6102696004803603810190610264919061103c565b610b55565b6040516102769190611215565b60405180910390f35b61029960048036038101906102949190611649565b610bac565b6040516102a691906112ba565b60405180910390f35b6102c960048036038101906102c4919061103c565b610bfa565b005b6102e560048036038101906102e09190611649565b610d1a565b6040516102f291906112ba565b60405180910390f35b60018054610308906116b8565b80601f0160208091040260200160405190810160405280929190818152602001828054610334906116b8565b80156103815780601f1061035657610100808354040283529160200191610381565b820191906000526020600020905b81548152906001019060200180831161036457829003601f168201915b505050505081565b606060008261039790611726565b90506002600082815260200190815260200160002080548060200260200160405190810160405280929190818152602001828054801561042c57602002820191906000526020600020905b8160009054906101000a900473ffffffffffffffffffffffffffffffffffffffff1673ffffffffffffffffffffffffffffffffffffffff16815260200190600101908083116103e2575b5050505050915050919050565b600080600090505b60026000848152602001908152602001600020805490508110156104fc573373ffffffffffffffffffffffffffffffffffffffff1660026000858152602001908152602001600020828154811061049b5761049a61178d565b5b9060005260206000200160009054906101000a900473ffffffffffffffffffffffffffffffffffffffff1673ffffffffffffffffffffffffffffffffffffffff16036104eb576001915050610502565b806104f5906117eb565b9050610441565b50600090505b919050565b6004602052806000526040600020600091509050806000015490806001018054610530906116b8565b80601f016020809104026020016040519081016040528092919081815260200182805461055c906116b8565b80156105a95780601f1061057e576101008083540402835291602001916105a9565b820191906000526020600020905b81548152906001019060200180831161058c57829003601f168201915b5050505050908060020154908060030180546105c4906116b8565b80601f01602080910402602001604051908101604052809291908181526020018280546105f0906116b8565b801561063d5780601f106106125761010080835404028352916020019161063d565b820191906000526020600020905b81548152906001019060200180831161062057829003601f168201915b5050505050905084565b606060008261065590611726565b9050600360008281526020019081526020016000208054806020026020016040519081016040528092919081815260200182805480156106ea57602002820191906000526020600020905b8160009054906101000a900473ffffffffffffffffffffffffffffffffffffffff1673ffffffffffffffffffffffffffffffffffffffff16815260200190600101908083116106a0575b5050505050915050919050565b60008054906101000a900473ffffffffffffffffffffffffffffffffffffffff1681565b600080600090505b60036000848152602001908152602001600020805490508110156107de573373ffffffffffffffffffffffffffffffffffffffff1660036000858152602001908152602001600020828154811061077d5761077c61178d565b5b9060005260206000200160009054906101000a900473ffffffffffffffffffffffffffffffffffffffff1673ffffffffffffffffffffffffffffffffffffffff16036107cd5760009150506107e4565b806107d7906117eb565b9050610723565b50600190505b919050565b6107f1610d68565b6000826107fd90611726565b9050600460008281526020019081526020016000206040518060a001604052908160008201548152602001600182018054610837906116b8565b80601f0160208091040260200160405190810160405280929190818152602001828054610863906116b8565b80156108b05780601f10610885576101008083540402835291602001916108b0565b820191906000526020600020905b81548152906001019060200180831161089357829003601f168201915b50505050508152602001600282015481526020016003820180546108d3906116b8565b80601f01602080910402602001604051908101604052809291908181526020018280546108ff906116b8565b801561094c5780601f106109215761010080835404028352916020019161094c565b820191906000526020600020905b81548152906001019060200180831161092f57829003601f168201915b50505050508152602001600482018054806020026020016040519081016040528092919081815260200182805480156109da57602002820191906000526020600020905b8160009054906101000a900473ffffffffffffffffffffffffffffffffffffffff1673ffffffffffffffffffffffffffffffffffffffff1681526020019060010190808311610990575b505050505081525050915050919050565b6000846109f790611726565b9050606060005b8351811015610aa65760026000848152602001908152602001600020848281518110610a2d57610a2c61178d565b5b60200260200101519080600181540180825580915050600190039060005260206000200160009091909190916101000a81548173ffffffffffffffffffffffffffffffffffffffff021916908373ffffffffffffffffffffffffffffffffffffffff16021790555080610a9f906117eb565b90506109fe565b50610aaf610d68565b6040518060a001604052808481526020018781526020014281526020018681526020018381525090508060046000858152602001908152602001600020600082015181600001556020820151816001019081610b0b91906119d2565b50604082015181600201556060820151816003019081610b2b91906119d2565b506080820151816004019080519060200190610b48929190610d9a565b5090505050505050505050565b60008082610b6290611726565b90506002600082815260200190815260200160002080549050600360008381526020019081526020016000208054905003610ba1576001915050610ba7565b60009150505b919050565b60036020528160005260406000208181548110610bc857600080fd5b906000526020600020016000915091509054906101000a900473ffffffffffffffffffffffffffffffffffffffff1681565b600081610c0690611726565b9050610c1181610439565b610c50576040517f08c379a0000000000000000000000000000000000000000000000000000000008152600401610c4790611af0565b60405180910390fd5b610c598161071b565b610c98576040517f08c379a0000000000000000000000000000000000000000000000000000000008152600401610c8f90611b82565b60405180910390fd5b60036000828152602001908152602001600020339080600181540180825580915050600190039060005260206000200160009091909190916101000a81548173ffffffffffffffffffffffffffffffffffffffff021916908373ffffffffffffffffffffffffffffffffffffffff160217905550610d1582610b55565b505050565b60026020528160005260406000208181548110610d3657600080fd5b906000526020600020016000915091509054906101000a900473ffffffffffffffffffffffffffffffffffffffff1681565b6040518060a0016040528060008019168152602001606081526020016000815260200160608152602001606081525090565b828054828255906000526020600020908101928215610e13579160200282015b82811115610e125782518260006101000a81548173ffffffffffffffffffffffffffffffffffffffff021916908373ffffffffffffffffffffffffffffffffffffffff16021790555091602001919060010190610dba565b5b509050610e209190610e24565b5090565b5b80821115610e3d576000816000905550600101610e25565b5090565b600081519050919050565b600082825260208201905092915050565b60005b83811015610e7b578082015181840152602081019050610e60565b60008484015250505050565b6000601f19601f8301169050919050565b6000610ea382610e41565b610ead8185610e4c565b9350610ebd818560208601610e5d565b610ec681610e87565b840191505092915050565b60006020820190508181036000830152610eeb8184610e98565b905092915050565b6000604051905090565b600080fd5b600080fd5b600080fd5b600080fd5b7f4e487b7100000000000000000000000000000000000000000000000000000000600052604160045260246000fd5b610f4982610e87565b810181811067ffffffffffffffff82111715610f6857610f67610f11565b5b80604052505050565b6000610f7b610ef3565b9050610f878282610f40565b919050565b600067ffffffffffffffff821115610fa757610fa6610f11565b5b610fb082610e87565b9050602081019050919050565b82818337600083830152505050565b6000610fdf610fda84610f8c565b610f71565b905082815260208101848484011115610ffb57610ffa610f0c565b5b611006848285610fbd565b509392505050565b600082601f83011261102357611022610f07565b5b8135611033848260208601610fcc565b91505092915050565b60006020828403121561105257611051610efd565b5b600082013567ffffffffffffffff8111156110705761106f610f02565b5b61107c8482850161100e565b91505092915050565b600081519050919050565b600082825260208201905092915050565b6000819050602082019050919050565b600073ffffffffffffffffffffffffffffffffffffffff82169050919050565b60006110dc826110b1565b9050919050565b6110ec816110d1565b82525050565b60006110fe83836110e3565b60208301905092915050565b6000602082019050919050565b600061112282611085565b61112c8185611090565b9350611137836110a1565b8060005b8381101561116857815161114f88826110f2565b975061115a8361110a565b92505060018101905061113b565b5085935050505092915050565b6000602082019050818103600083015261118f8184611117565b905092915050565b6000819050919050565b6111aa81611197565b81146111b557600080fd5b50565b6000813590506111c7816111a1565b92915050565b6000602082840312156111e3576111e2610efd565b5b60006111f1848285016111b8565b91505092915050565b60008115159050919050565b61120f816111fa565b82525050565b600060208201905061122a6000830184611206565b92915050565b61123981611197565b82525050565b6000819050919050565b6112528161123f565b82525050565b600060808201905061126d6000830187611230565b818103602083015261127f8186610e98565b905061128e6040830185611249565b81810360608301526112a08184610e98565b905095945050505050565b6112b4816110d1565b82525050565b60006020820190506112cf60008301846112ab565b92915050565b6112de81611197565b82525050565b600082825260208201905092915050565b600061130082610e41565b61130a81856112e4565b935061131a818560208601610e5d565b61132381610e87565b840191505092915050565b6113378161123f565b82525050565b600082825260208201905092915050565b600061135982611085565b611363818561133d565b935061136e836110a1565b8060005b8381101561139f57815161138688826110f2565b97506113918361110a565b925050600181019050611372565b5085935050505092915050565b600060a0830160008301516113c460008601826112d5565b50602083015184820360208601526113dc82826112f5565b91505060408301516113f1604086018261132e565b506060830151848203606086015261140982826112f5565b91505060808301518482036080860152611423828261134e565b9150508091505092915050565b6000602082019050818103600083015261144a81846113ac565b905092915050565b600067ffffffffffffffff82111561146d5761146c610f11565b5b602082029050602081019050919050565b600080fd5b61148c816110d1565b811461149757600080fd5b50565b6000813590506114a981611483565b92915050565b60006114c26114bd84611452565b610f71565b905080838252602082019050602084028301858111156114e5576114e461147e565b5b835b8181101561150e57806114fa888261149a565b8452602084019350506020810190506114e7565b5050509392505050565b600082601f83011261152d5761152c610f07565b5b813561153d8482602086016114af565b91505092915050565b600080600080608085870312156115605761155f610efd565b5b600085013567ffffffffffffffff81111561157e5761157d610f02565b5b61158a8782880161100e565b945050602085013567ffffffffffffffff8111156115ab576115aa610f02565b5b6115b78782880161100e565b935050604085013567ffffffffffffffff8111156115d8576115d7610f02565b5b6115e48782880161100e565b925050606085013567ffffffffffffffff81111561160557611604610f02565b5b61161187828801611518565b91505092959194509250565b6116268161123f565b811461163157600080fd5b50565b6000813590506116438161161d565b92915050565b600080604083850312156116605761165f610efd565b5b600061166e858286016111b8565b925050602061167f85828601611634565b9150509250929050565b7f4e487b7100000000000000000000000000000000000000000000000000000000600052602260045260246000fd5b600060028204905060018216806116d057607f821691505b6020821081036116e3576116e2611689565b5b50919050565b600081519050919050565b6000819050602082019050919050565b60006117108251611197565b80915050919050565b600082821b905092915050565b6000611731826116e9565b8261173b846116f4565b905061174681611704565b92506020821015611786576117817fffffffffffffffffffffffffffffffffffffffffffffffffffffffffffffffff83602003600802611719565b831692505b5050919050565b7f4e487b7100000000000000000000000000000000000000000000000000000000600052603260045260246000fd5b7f4e487b7100000000000000000000000000000000000000000000000000000000600052601160045260246000fd5b60006117f68261123f565b91507fffffffffffffffffffffffffffffffffffffffffffffffffffffffffffffffff8203611828576118276117bc565b5b600182019050919050565b60008190508160005260206000209050919050565b60006020601f8301049050919050565b6000600883026118887fffffffffffffffffffffffffffffffffffffffffffffffffffffffffffffffff82611719565b6118928683611719565b95508019841693508086168417925050509392505050565b6000819050919050565b60006118cf6118ca6118c58461123f565b6118aa565b61123f565b9050919050565b6000819050919050565b6118e9836118b4565b6118fd6118f5826118d6565b848454611858565b825550505050565b600090565b611912611905565b61191d8184846118e0565b505050565b5b818110156119415761193660008261190a565b600181019050611923565b5050565b601f8211156119865761195781611833565b61196084611848565b8101602085101561196f578190505b61198361197b85611848565b830182611922565b50505b505050565b600082821c905092915050565b60006119a96000198460080261198b565b1980831691505092915050565b60006119c28383611998565b9150826002028217905092915050565b6119db82610e41565b67ffffffffffffffff8111156119f4576119f3610f11565b5b6119fe82546116b8565b611a09828285611945565b600060209050601f831160018114611a3c5760008415611a2a578287015190505b611a3485826119b6565b865550611a9c565b601f198416611a4a86611833565b60005b82811015611a7257848901518255600182019150602085019450602081019050611a4d565b86831015611a8f5784890151611a8b601f891682611998565b8355505b6001600288020188555050505b505050505050565b7f596f75206d757374206265206120706565722d72657669657765722e0a000000600082015250565b6000611ada601d83610e4c565b9150611ae582611aa4565b602082019050919050565b60006020820190508181036000830152611b0981611acd565b9050919050565b7f596f75206861766520616c72656164792076616c69646174656420746865206460008201527f6f63756d656e7400000000000000000000000000000000000000000000000000602082015250565b6000611b6c602783610e4c565b9150611b7782611b10565b604082019050919050565b60006020820190508181036000830152611b9b81611b5f565b905091905056fea2646970667358221220be7e3e8f586bbe3dc9c4e6eb37c31df787ab454e6ffb814b56493ebceb0f51f164736f6c63430008130033",
  "immutableReferences": {},
  "source": "// SPDX-License-Identifier: MIT\npragma solidity >=0.4.22 <0.9.0;\n\n// Importer smart contract general.col\n\n//\n//  !!!  HERE MSG.SENDER IS THE VALIDATOR, WE MUST CHANGE THIS IF WE CHANGE OF PARADIGME  noted with *\n//\n//\ncontract validation{\n    address public owner;\n    string public name = 'Validation';\n\n    constructor() public {\n        owner = msg.sender;\n    }\n\n    modifier restricted(){ //True only if msg.sender is the owner\n         if(owner == msg.sender) _;  // \"_\" means : \"continue with the function\"\n    }\n\n    struct document {\n        //uint256 hash;\n        // prender le temps de cration ?\n        bytes32 hash; // ?\n        string date; // Any date we think is useful\n        uint timestamp; // we can find the days, hours, ...\n        string subject;\n        address[] Validate; //Addresses of those who had validated | Validate.length is equal to the number of validation \n    }\n\n    mapping(bytes32=>address[]) public DocToReviewers;\n    mapping(bytes32=>address[]) public DocToValidate; // list of the addresses having validated the document\n    mapping(bytes32=>document) public HashToDoc;\n\n// At the beggining of the global contract : validate = false\n\n    //Return true if msg.sender is a validator, if not return false **\n    function isReviewer(bytes32 hash_) public view returns(bool){ //True only if msg.sender is the owner\n        for(uint k=0; k<DocToReviewers[hash_].length; ++k){\n            if(DocToReviewers[hash_][k] == msg.sender){\n                return true;\n            }\n        }\n        return false;\n    }\n\n    function NotInValidate(bytes32 hash_) public view returns(bool){\n        for(uint k=0; k<DocToValidate[hash_].length; ++k){\n            if(DocToValidate[hash_][k] == msg.sender){\n                return false;\n            }\n        }\n        return true;\n    }\n\n    //Set a list of reviewers - OR AT LEAST make sure the list is made by reviewers\n    //Who calls ? -> Smart contract, owner\n    function BuildDocument(string memory inputHash, string memory the_date, string memory a_subject, address[] memory Reviewers) public  {\n        //convert string hash to bytes32\n        bytes32 hash = bytes32(bytes(inputHash));\n        //Set the document as non-verified\n        address[] memory Validate;\n\n        //Add the reviewers\n        for(uint k=0; k<Reviewers.length;++k){\n            DocToReviewers[hash].push(Reviewers[k]);\n        }\n\n        document memory the_document;\n        the_document = document(hash, the_date, block.timestamp, a_subject, Validate);\n        HashToDoc[hash] = the_document; //The document is added and associated with its hash\n    }\n\n    //Validate : add the address of the validator (peer reviewer)\n    //Who calls ? -> A reviewer\n    function Validation(string memory inputHash) public  {\n        bytes32 hash_ = bytes32(bytes(inputHash));   \n        require(isReviewer(hash_), \"You must be a peer-reviewer.\\n\");\n        require(NotInValidate(hash_), \"You have already validated the document\");\n        DocToValidate[hash_].push(msg.sender);\n        //call the final verification :?\n        if(isValidated(inputHash)){\n            //\n        }\n    }\n\n    //Return true if the document is fully validated :\n    function isValidated(string memory inputHash) public view returns(bool){\n        bytes32 hash_ = bytes32(bytes(inputHash));   \n        if(DocToValidate[hash_].length == DocToReviewers[hash_].length){\n            return true;\n        }\n        return false;\n    }\n\n\n    //Getters------------------------------\n\n    function getDocToReviewers(string memory inputHash) public view returns(address[] memory){\n        bytes32 hash_ = bytes32(bytes(inputHash));   \n        return DocToReviewers[hash_];\n    }\n\n    function getDocToValidate(string memory inputHash) public view returns(address[] memory){\n        bytes32 hash_ = bytes32(bytes(inputHash));\n        return DocToValidate[hash_];\n    }\n\n    function getHashToDoc(string memory inputHash) public view returns(document memory){\n        bytes32 hash_ = bytes32(bytes(inputHash));\n        return HashToDoc[hash_];\n    }\n}\n\n\n",
  "sourcePath": "D:\\Utilisateur\\ENSTA\\PIE\\Solidity\\PIE_FLO\\contracts\\Validation.sol",
  "compiler": {
    "name": "solc",
    "version": "0.8.19+commit.7dd6d404.Emscripten.clang"
  },
  "schemaVersion": "3.4.13",
  "updatedAt": "2023-04-27T14:56:04.289Z",
  "networkType": "ethereum",
  "devdoc": {
    "kind": "dev",
    "methods": {},
    "version": 1
  },
  "userdoc": {
    "kind": "user",
    "methods": {},
    "version": 1
  }
}